:100000000C9434000C9451000C9451000C94510049
:100010000C9451000C9451000C9451000C9451001C
:100020000C9451000C9451000C9451000C9451000C
:100030000C9451000C9451000C9451000C945100FC
:100040000C9451000C9451000C9451000C945100EC
:100050000C9451000C9451000C9451000C945100DC
:100060000C9451000C94510011241FBECFEFD8E026
:10007000DEBFCDBF11E0A8E0B1E001C01D92A43108
:10008000B107E1F711E0A0E0B1E0E8EDF4E302C070
:1000900005900D92A830B107D9F70E9435180C943D
:1000A0006A1A0C940000EF92FF920F931F937B014A
:1000B0008C0120E030E040E05FE40E94FF038823F1
:1000C0008CF0C801B70120E030E040E05FE40E941E
:1000D000CB010E945F049B01AC01205030404040A6
:1000E000504806C0C801B7010E945F049B01AC01E3
:1000F000B901CA011F910F91FF90EF900895A0E000
:10010000B0E0E5E8F0E00C94331ADC012B01FA01D1
:100110009C91923008F439C1EB018881823008F457
:1001200033C1943069F4843009F02FC111969C9149
:1001300011978981981709F428C1A0E0B1E025C181
:10014000843009F421C18230A9F4923009F01DC134
:100150009A01AD0188E0EA010990AE01E901099236
:100160009E018150C1F7E201898111969C918923FA
:10017000818308C1923009F407C112962D903C90FA
:100180001397EB018A819B811496AD90BD90CD9021
:10019000DC901797EC80FD800E811F819101281B58
:1001A000390BB90137FF04C066277727621B730B31
:1001B000603271050CF061C0121613066CF5370140
:1001C0004801062E04C096948794779467940A9405
:1001D000D2F721E030E040E050E004C0220F331FAE
:1001E000441F551F6A95D2F721503040404050407F
:1001F0002E213F2140235123211531054105510571
:1002000021F021E030E040E050E079018A01E62869
:10021000F728082919293CC0232BD1F1260E371EB7
:1002200035014601062E04C096948794779467940E
:100230000A94D2F721E030E040E050E004C0220F01
:10024000331F441F551F6A95D2F72150304040405C
:1002500050402A213B214C215D21211531054105CA
:10026000510521F021E030E040E050E059016A0101
:10027000A628B728C828D9280BC0821593052CF0CA
:100280001C01AA24BB24650103C0EE24FF248701BE
:1002900011969C91D20111968C91981709F445C042
:1002A000992339F0A80197012A193B094C095D09E6
:1002B00006C0A60195012E193F09400B510B57FDB1
:1002C00008C0118233822282248335834683578378
:1002D0001DC081E081833382228288279927DC0137
:1002E000821B930BA40BB50B84839583A683B783E2
:1002F0000DC0220F331F441F551F248335834683AF
:1003000057838281938101979383828324813581EE
:1003100046815781DA01C9010197A109B1098F5FAF
:100320009F4FAF4FBF4328F30BC09183338222828C
:10033000EA0CFB1C0C1D1D1DE482F582068317834D
:1003400083E08083248135814681578157FF1AC01D
:10035000C901AA2797FDA095BA2F81709070A0704F
:10036000B0705695479537952795822B932BA42BE4
:10037000B52B84839583A683B7838281938101966D
:1003800093838283DF0101C0D201CD01CDB7DEB7F7
:10039000E2E10C944F1AA0E2B0E0E1EDF1E00C9440
:1003A0003F1A69837A838B839C832D833E834F839B
:1003B0005887E9E0EE2EF12CEC0EFD1ECE010196E1
:1003C000B7010E9488058E010F5E1F4FCE01059672
:1003D000B8010E9488058A8991E089278A8BC70124
:1003E000B801AE01475E5F4F0E947F000E94B304D8
:1003F000A096E6E00C945B1AA0E2B0E0E2E0F2E046
:100400000C943F1A69837A838B839C832D833E836C
:100410004F835887F9E0EF2EF12CEC0EFD1ECE0134
:100420000196B7010E9488058E010F5E1F4FCE0115
:100430000596B8010E948805C701B801AE01475E64
:100440005F4F0E947F000E94B304A096E6E00C94E8
:100450005B1AA0E2B0E0EFE2F2E00C94331A698399
:100460007A838B839C832D833E834F835887CE0171
:100470000196BE01675F7F4F0E948805CE010596F9
:10048000BE016F5E7F4F0E9488059985923088F08B
:1004900089898230C8F0943019F4823051F404C054
:1004A000843029F4923081F480E091E0C6C092302B
:1004B00049F420E09A858A89981321E02A87CE01A1
:1004C0000996BBC0823049F420E09A858A89981346
:1004D00021E02A8BCE014196B0C02D843E844F840A
:1004E00058886D887E888F88988CEE24FF24870139
:1004F000AA24BB24650140E050E060E070E0E0E049
:10050000F0E0C10181709070892BE9F0E60CF71CD6
:10051000081D191D9A01AB012A0D3B1D4C1D5D1DC7
:1005200080E090E0A0E0B0E0E614F70408051905CB
:1005300020F481E090E0A0E0B0E0BA01A901480F0A
:10054000591F6A1F7B1FAA0CBB1CCC1CDD1C97FE0D
:1005500008C081E090E0A0E0B0E0A82AB92ACA2A49
:10056000DB2A3196E032F10549F0660C771C881CD5
:10057000991C5694479437942794C3CFFA85EA89F7
:100580002B893C898B859C85280F391F2E5F3F4F17
:1005900017C0CA0181709070892B61F0169507957C
:1005A000F794E79480E090E0A0E0B0E8E82AF92A28
:1005B0000A2B1B2B76956795579547952F5F3F4FD5
:1005C00077FDE7CF0CC0440F551F661F771F17FD3F
:1005D0004160EE0CFF1C001F111F215030404030C5
:1005E00090E0590790E0690790E4790760F32B8F5A
:1005F0003C8FDB01CA018F779070A070B07080349F
:100600009105A105B10561F447FD0AC0E114F104AB
:100610000105110529F0405C5F4F6F4F7F4F407817
:100620001A8EFE1711F081E08A8F4D8F5E8F6F8FCB
:1006300078A383E0898FCE0149960E94B304A096E7
:10064000E2E10C944F1AA8E1B0E0E9E2F3E00C9487
:100650003B1A69837A838B839C832D833E834F83EC
:100660005887B9E0EB2EF12CEC0EFD1ECE01019661
:10067000B7010E9488058E010F5E1F4FCE010596BF
:10068000B8010E9488052985223008F47EC0398986
:10069000323010F4B8017CC08A859A8989278A870C
:1006A000243011F0223031F4231709F06EC060E0DD
:1006B00071E06EC0343039F41D861E861F86188A9C
:1006C0001C861B8604C0323021F484E08987B70180
:1006D0005FC02B853C858B899C89281B390B3C8707
:1006E0002B87ED84FE840F851889AD88BE88CF885E
:1006F000D88CEA14FB040C051D0540F4EE0CFF1C1D
:10070000001F111F215030403C872B8720E030E034
:1007100040E050E080E090E0A0E0B0E460E070E015
:10072000EA14FB040C051D0540F0282B392B4A2B3D
:100730005B2BEA18FB080C091D09B695A795979540
:100740008795EE0CFF1C001F111F6F5F7F4F6F31ED
:10075000710531F7DA01C9018F779070A070B07020
:1007600080349105A105B10561F427FD0AC0E114AB
:10077000F1040105110529F0205C3F4F4F4F5F4FF9
:1007800020782D873E874F87588BBE01675F7F4F4C
:10079000CB010E94B3046896EAE00C94571AA8E1D2
:1007A000B0E0E5EDF3E00C943F1A69837A838B8324
:1007B0009C832D833E834F83588789E0E82EF12C5C
:1007C000EC0EFD1ECE010196B7010E9488058E0138
:1007D0000F5E1F4FCE010596B8010E9488058985DE
:1007E000823040F08989823028F0C701B8010E9428
:1007F000000601C08FEF6896E6E00C945B1AA8E152
:10080000B0E0E5E0F4E00C943F1A69837A838B83CF
:100810009C832D833E834F83588789E0E82EF12CFB
:10082000EC0EFD1ECE010196B7010E9488058E01D7
:100830000F5E1F4FCE010596B8010E94880589857D
:10084000823040F08989823028F0C701B8010E94C7
:10085000000601C08FEF6896E6E00C945B1AA8E1F1
:10086000B0E0E5E3F4E00C943F1A69837A838B836C
:100870009C832D833E834F83588789E0E82EF12C9B
:10088000EC0EFD1ECE010196B7010E9488058E0177
:100890000F5E1F4FCE010596B8010E94880589851D
:1008A000823040F08989823028F0C701B8010E9467
:1008B000000601C081E06896E6E00C945B1AACE0AB
:1008C000B0E0E5E6F4E00C94431A69837A838B8305
:1008D0009C83CE010196BE016B5F7F4F0E9488050D
:1008E0008D81823061F1823050F1843021F48E812B
:1008F000882351F12EC02F81388537FD20C06E81AD
:100900002F3131051CF06623F9F023C08EE190E011
:10091000821B930B29853A854B855C8504C05695CF
:100920004795379527958A95D2F76623B1F050956C
:100930004095309521953F4F4F4F5F4F0EC020E0BF
:1009400030E040E050E009C02FEF3FEF4FEF5FE7AE
:1009500004C020E030E040E050E8B901CA012C9624
:10096000E2E00C945F1ADF92EF92FF920F931F93D5
:10097000FC01E480F58006811781D180808182307E
:1009800048F480E090E0A0E1B0E0E82AF92A0A2BE0
:100990001B2BA5C0843009F49FC0823021F4EE24C3
:1009A000FF24870105C0E114F1040105110519F4C4
:1009B000E0E0F0E096C0628173819FEF62387907D2
:1009C0000CF05BC022E83FEF261B370B2A313105C4
:1009D0002CF020E030E040E050E02AC0B801A70150
:1009E000022E04C076956795579547950A94D2F7DD
:1009F00081E090E0A0E0B0E004C0880F991FAA1F3A
:100A0000BB1F2A95D2F70197A109B1098E219F2119
:100A1000A023B1230097A105B10521F081E090E06A
:100A2000A0E0B0E09A01AB01282B392B4A2B5B2BBD
:100A3000DA01C9018F779070A070B0708034910591
:100A4000A105B10539F427FF09C0205C3F4F4F4F86
:100A50005F4F04C0215C3F4F4F4F5F4FE0E0F0E03D
:100A60002030A0E03A07A0E04A07A0E45A0710F0BF
:100A7000E1E0F0E079018A0127C06038710564F592
:100A8000FB01E158FF4FD801C7018F779070A0702C
:100A9000B07080349105A105B10539F4E7FE0DC0B1
:100AA00080E490E0A0E0B0E004C08FE390E0A0E03C
:100AB000B0E0E80EF91E0A1F1B1F17FF05C01695B0
:100AC0000795F794E794319687E016950795F79484
:100AD000E7948A95D1F705C0EE24FF248701EFEF54
:100AE000F0E06E2F679566276795902F9F77D794D4
:100AF000DD24D7948E2F8695492F462B582F5D29BC
:100B0000B701CA011F910F91FF90EF90DF900895F8
:100B1000FC01DB01408151812281622F6F7770E0FF
:100B2000221F2227221F9381892F880F822B282F93
:100B300030E0991F9927991F11969C9311972115C1
:100B40003105A9F5411551056105710511F482E0E2
:100B500037C082E89FEF13969C938E9312979A0169
:100B6000AB0167E0220F331F441F551F6A95D1F771
:100B700083E08C930DC0220F331F441F551F129624
:100B80008D919C911397019713969C938E93129736
:100B9000203080E0380780E0480780E4580758F3A9
:100BA00014962D933D934D935C93179708952F3F83
:100BB000310579F4411551056105710519F484E099
:100BC0008C93089564FF03C081E08C9312C01C9243
:100BD00010C02F57304013963C932E93129783E00A
:100BE0008C9387E0440F551F661F771F8A95D1F7B6
:100BF000706414964D935D936D937C93179708954D
:100C00001F93DC01FB019C91923008F447C0808166
:100C1000823008F443C0943051F411961C91843012
:100C200099F58181682F70E0611B71093FC08430A4
:100C300021F0923031F48230B9F18181882389F139
:100C40002DC011961C9111978230F1F081811817F7
:100C5000D9F412962D913C9113978281938182173A
:100C6000930794F028173907BCF014968D919D9145
:100C70000D90BC91A02D2481358146815781281784
:100C800039074A075B0718F4112341F00AC082179D
:100C90009307A407B50740F4112319F061E070E051
:100CA00005C06FEF7FEF02C060E070E0CB011F91E5
:100CB0000895DF93CF93CDB7DEB7A0E8B0E0E0E8CA
:100CC000F0E0808181608C93A0E8B0E0E0E8F0E0A3
:100CD00080818D7F8C93A1E8B0E0E1E8F0E0808135
:100CE00088608C93A1E8B0E0E1E8F0E080818F7E3D
:100CF0008C93A0E8B0E0E0E8F0E080818F7B8C93FB
:100D0000A0E8B0E0E0E8F0E0808180688C93CF91CB
:100D1000DF910895DF93CF93CDB7DEB7A1E8B0E0C0
:100D2000E1E8F0E0808181608C93A1E8B0E0E1E847
:100D3000F0E0808182608C93A1E8B0E0E1E8F0E02F
:100D400080818B7F8C93CF91DF910895DF93CF9338
:100D5000CDB7DEB7A1E8B0E0E1E8F0E080818E7FBA
:100D60008C93A1E8B0E0E1E8F0E080818D7F8C9386
:100D7000A1E8B0E0E1E8F0E080818B7F8C93CF9137
:100D8000DF910895DF93CF930F92CDB7DEB78983BC
:100D900089818536C0F4E8E8F0E08981282F30E0C9
:100DA0008AEF90E0AC01249FC001259F900D349FF5
:100DB000900D112424E630E0B9010E94FD19CB0109
:100DC0000197918380830F90CF91DF910895DF93F6
:100DD000CF93CDB7DEB72B970FB6F894DEBF0FBE1B
:100DE000CDBF89836A834B838981833008F0C8C073
:100DF0008A81883008F0C4C08B81813021F08B81DA
:100E0000882309F0BDC08981282F30E03B872A87DD
:100E10008A859B858130910509F443C02A853B85ED
:100E20002230310509F475C08A859B85009709F049
:100E3000A7C08B81282F30E039872887888599853E
:100E4000009731F02885398521303105B1F098C0FF
:100E5000A4E2B0E0E4E2F0E08081482F8A81282F0C
:100E600030E081E090E0022E02C0880F991F0A94C2
:100E7000E2F7809584238C9383C0A4E2B0E0E4E29F
:100E8000F0E08081482F8A81282F30E081E090E0D7
:100E9000022E02C0880F991F0A94E2F7842B8C93CC
:100EA0006FC08B81282F30E03F832E838E819F81FE
:100EB000009731F02E813F8121303105B1F060C0C3
:100EC000A7E2B0E0E7E2F0E08081482F8A81282F96
:100ED00030E081E090E0022E02C0880F991F0A9452
:100EE000E2F7809584238C934BC0A7E2B0E0E7E261
:100EF000F0E08081482F8A81282F30E081E090E067
:100F0000022E02C0880F991F0A94E2F7842B8C935B
:100F100037C08B81282F30E03D832C838C819D81CD
:100F2000009731F02C813D8121303105B1F028C08E
:100F3000AAE2B0E0EAE2F0E08081482F8A81282F1F
:100F400030E081E090E0022E02C0880F991F0A94E1
:100F5000E2F7809584238C9313C0AAE2B0E0EAE222
:100F6000F0E08081482F8A81282F30E081E090E0F6
:100F7000022E02C0880F991F0A94E2F7842B8C93EB
:100F80002B960FB6F894DEBF0FBECDBFCF91DF9189
:100F90000895DF93CF93CDB7DEB72B970FB6F894B4
:100FA000DEBF0FBECDBF89836A834B8389818330C7
:100FB00008F0C8C08A81883008F0C4C08B818130B5
:100FC00021F08B81882309F0BDC08981282F30E072
:100FD0003B872A878A859B858130910509F443C028
:100FE0002A853B852230310509F475C08A859B85A9
:100FF000009709F0A7C08B81282F30E03987288718
:1010000088859985009731F028853985213031050B
:10101000B1F098C0A5E2B0E0E5E2F0E08081482FB1
:101020008A81282F30E081E090E0022E02C0880FF4
:10103000991F0A94E2F7809584238C9383C0A5E2DC
:10104000B0E0E5E2F0E08081482F8A81282F30E08F
:1010500081E090E0022E02C0880F991F0A94E2F707
:10106000842B8C936FC08B81282F30E03F832E839D
:101070008E819F81009731F02E813F812130310593
:10108000B1F060C0A8E2B0E0E8E2F0E08081482F73
:101090008A81282F30E081E090E0022E02C0880F84
:1010A000991F0A94E2F7809584238C934BC0A8E2A1
:1010B000B0E0E8E2F0E08081482F8A81282F30E01C
:1010C00081E090E0022E02C0880F991F0A94E2F797
:1010D000842B8C9337C08B81282F30E03D832C8369
:1010E0008C819D81009731F02C813D81213031052B
:1010F000B1F028C0ABE2B0E0EBE2F0E08081482F35
:101100008A81282F30E081E090E0022E02C0880F13
:10111000991F0A94E2F7809584238C9313C0ABE265
:10112000B0E0EBE2F0E08081482F8A81282F30E0A8
:1011300081E090E0022E02C0880F991F0A94E2F726
:10114000842B8C932B960FB6F894DEBF0FBECDBFC9
:10115000CF91DF910895DF93CF9300D000D000D0DE
:10116000CDB7DEB789836A835C834B838981833003
:1011700008F059C08A81883008F055C08B819C8165
:10118000009709F450C08981282F30E03E832D83D9
:101190004D815E8141305105F9F08D819E81823013
:1011A000910571F12D813E812115310509F03BC07A
:1011B000E3E2F0E08081282F30E08A81882F90E000
:1011C000A90102C0559547958A95E2F7CA01817039
:1011D000EB81FC81808327C0E6E2F0E08081282F4C
:1011E00030E08A81882F90E0A90102C0559547958B
:1011F0008A95E2F7CA018170EB81FC81808313C07C
:10120000E9E2F0E08081282F30E08A81882F90E0A9
:10121000A90102C0559547958A95E2F7CA018170E8
:10122000EB81FC81808326960FB6F894DEBF0FBE5B
:10123000CDBFCF91DF910895DF93CF9300D000D041
:10124000CDB7DEB789836A838981833008F052C0C5
:101250008A81883008F04EC08981282F30E03C8395
:101260002B838B819C8181309105E9F02B813C811E
:101270002230310561F18B819C810097D9F5A5E27F
:10128000B0E0E5E2F0E08081482F8A81282F30E04D
:1012900081E090E0022E02C0880F991F0A94E2F7C5
:1012A00084278C9327C0A8E2B0E0E8E2F0E08081D8
:1012B000482F8A81282F30E081E090E0022E02C082
:1012C000880F991F0A94E2F784278C9313C0ABE22E
:1012D000B0E0EBE2F0E08081482F8A81282F30E0F7
:1012E00081E090E0022E02C0880F991F0A94E2F775
:1012F00084278C930F900F900F900F90CF91DF91D8
:101300000895DF93CF9300D000D0CDB7DEB78983A7
:101310006A838981833008F052C08A81883008F05E
:101320004EC08981282F30E03C832B838B819C81A8
:1013300081309105E9F02B813C812230310561F14A
:101340008B819C810097D9F5A5E2B0E0E5E2F0E061
:101350008081482F8A81282F30E081E090E0022EA2
:1013600002C0880F991F0A94E2F7842B8C9327C040
:10137000A8E2B0E0E8E2F0E08081482F8A81282FDF
:1013800030E081E090E0022E02C0880F991F0A949D
:10139000E2F7842B8C9313C0ABE2B0E0EBE2F0E019
:1013A0008081482F8A81282F30E081E090E0022E52
:1013B00002C0880F991F0A94E2F7842B8C930F9038
:1013C0000F900F900F90CF91DF910895DF93CF93FF
:1013D00000D00F92CDB7DEB789838981282F30E006
:1013E0003B832A838A819B8181309105C1F02A81C8
:1013F0003B812230310511F18A819B81009761F593
:10140000ACE7B0E0ECE7F0E0808180648C93ACE77F
:10141000B0E0ECE7F0E080818F778C931DC0ACE703
:10142000B0E0ECE7F0E080818F7B8C93ACE7B0E03C
:10143000ECE7F0E080818F778C930EC0ACE7B0E0F2
:10144000ECE7F0E0808180648C93ACE7B0E0ECE7FF
:10145000F0E0808180688C93ACE7B0E0ECE7F0E0EE
:1014600080818F7D8C93AAE7B0E0EAE7F0E080818D
:101470008F7D8C93AAE7B0E0EAE7F0E08081877F78
:101480008C93AAE7B0E0EAE7F0E0808181608C937A
:10149000AAE7B0E0EAE7F0E0808182608C93AAE7F7
:1014A000B0E0EAE7F0E0808184608C93AAE7B0E0E6
:1014B000EAE7F0E0808180688C930F900F900F90A6
:1014C000CF91DF910895DF93CF9300D00F92CDB7E6
:1014D000DEB789837B836A8389818032A0F58A8124
:1014E0009B81009781F1ACE7B0E0ECE7F0E0808110
:1014F000807F8C93ACE7B0E0ECE7F0E090818981ED
:10150000892B8C93AAE7B0E0EAE7F0E08081806461
:101510008C93EAE7F0E0808182958F70882F90E0CD
:10152000817090700097A9F3AAE7B0E0EAE7F0E0D5
:10153000808180618C93E8E7F0E080819181EA818D
:10154000FB81918380830F900F900F90CF91DF915B
:101550000895DF93CF93CDB7DEB781E061E040E03F
:101560000E94E70680E00E94E609CF91DF9108958E
:10157000DF93CF9300D0CDB7DEB79A83898328E07D
:1015800031E081E0B9010E94630A809108019091E5
:101590000901CC01A0E0B0E028E833E140E050E0F0
:1015A000BC01CD010E94DE19DC01CB012CEF33E040
:1015B00040E050E0BC01CD010E94111ADA01C901DE
:1015C00080930A0190930B01A0930C01B0930D013D
:1015D00080910A0190910B01A0910C01B0910D0135
:1015E0002AE030E040E050E0BC01CD010E94111A39
:1015F000DA01C901E981FA8180839183A283B383EF
:101600000F900F90CF91DF9108950F931F93DF9369
:10161000CF93CDB7DEB7CA55D0400FB6F894DEBF32
:101620000FBECDBF82E067E041E00E94E70682E0A6
:1016300066E041E00E94E70682E061E041E00E944E
:10164000E70682E062E041E00E94E70682E060E0B7
:1016500041E00E94E70682E064E041E00E94E70684
:1016600082E065E041E00E94E706FE01E95AFF4F93
:1016700080E090E0ACE0B2E480839183A283B38306
:101680008E010D5A1F4FFE01E95AFF4F6081718193
:101690008281938120E030E04AE755E40E942902EC
:1016A000DC01CB01F80180839183A283B383FE0127
:1016B000ED5AFF4F608171818281938120E030E09B
:1016C00040E85FE30E942F04882344F4FE01EF5AB0
:1016D000FF4F81E090E09183808364C0FE01ED5A6A
:1016E000FF4F608171818281938120E03FEF4FE75E
:1016F00057E40E94CF0318160CF043C0FE01E95ACC
:10170000FF4F608171818281938120E030E040E26F
:1017100051E40E942902DC01CB018E010F5A1F4FB8
:10172000BC01CD010E945300DC01CB01F801918383
:1017300080831FC0FE01E15BFF4F80E991E0918350
:101740008083FE01E15BFF4F808191810197F1F77A
:10175000FE01E15BFF4F91838083DE01AF5ABF4FF3
:10176000FE01EF5AFF4F80819181019711969C9362
:101770008E93FE01EF5AFF4F808191810097D1F641
:1017800027C08E010F5A1F4FFE01ED5AFF4F608197
:101790007181828193810E945300DC01CB01F801A9
:1017A00091838083DE01A35BBF4FFE01EF5AFF4FA1
:1017B000808191818D939C93FE01E35BFF4F80813B
:1017C00091810197F1F7FE01E35BFF4F91838083E5
:1017D00082E066E040E00E94C90782E067E040E006
:1017E0000E94C90782E00E94F11082E061E041E0BE
:1017F0000E94C907FE01E75BFF4F80E090E0A0E890
:10180000BFE380839183A283B3838E010B5B1F4F61
:10181000FE01E75BFF4F608171818281938120E04F
:1018200030E04AE755E40E942902DC01CB01F801CF
:1018300080839183A283B383FE01EB5BFF4F6081C2
:1018400071818281938120E030E040E85FE30E9473
:101850002F04882344F4FE01ED5BFF4F81E090E00C
:101860009183808364C0FE01EB5BFF4F60817181D7
:101870008281938120E03FEF4FE757E40E94CF033E
:1018800018160CF043C0FE01E75BFF4F60817181C9
:101890008281938120E030E040E251E40E942902FD
:1018A000DC01CB018E010D5B1F4FBC01CD010E94FD
:1018B0005300DC01CB01F801918380831FC0FE013E
:1018C000EF5BFF4F80E991E091838083FE01EF5B46
:1018D000FF4F808191810197F1F7FE01EF5BFF4F90
:1018E00091838083DE01AD5BBF4FFE01ED5BFF4F57
:1018F00080819181019711969C938E93FE01ED5BFF
:10190000FF4F808191810097D1F624C08E010D5B3D
:101910001F4FFE01EB5BFF4F6081718182819381DC
:101920000E945300DC01CB01F80191838083FE010A
:10193000ED5BFF4F80819181FE01FF969183808353
:10194000FE01FF96808191810197F1F7FE01FF96DC
:101950009183808382E061E040E00E94C90788E2D1
:101960000E94B50E80E090E0A4E3B2E48BAF9CAFA0
:10197000ADAFBEAF6BAD7CAD8DAD9EAD2BEA3AEA9F
:101980004AEA50E40E942902DC01CB018FAB98AFF8
:10199000A9AFBAAF6FA978AD89AD9AAD20E030E0BC
:1019A00040E85FE30E942F0488231CF481E08EABA3
:1019B00091C06FA978AD89AD9AAD20E030E04FE7D6
:1019C00053E40E94CF0318160CF07BC06BAD7CADC6
:1019D0008DAD9EAD20E030E04AE754E40E94230341
:1019E000DC01CB018AAB9BABACABBDAB6AA97BA9DD
:1019F0008CA99DA920E030E04AE755E40E94290225
:101A0000DC01CB018EA79FA7A8ABB9AB6EA57FA5C4
:101A100088A999A920E030E040E85FE30E942F0404
:101A200088232CF481E090E09DA78CA73FC06EA591
:101A30007FA588A999A920E03FEF4FE757E40E94CE
:101A4000CF0318164CF56AA97BA98CA99DA920E0A3
:101A500030E040E251E40E942902DC01CB01BC01EC
:101A6000CD010E945300DC01CB019DA78CA70FC0C4
:101A700080E991E09BA78AA78AA59BA50197F1F72A
:101A80009BA78AA78CA59DA501979DA78CA78CA530
:101A90009DA5009769F724C06EA57FA588A999A97F
:101AA0000E945300DC01CB019DA78CA78CA59DA5AE
:101AB00099A788A788A599A50197F1F799A788A75D
:101AC0000FC06FA978AD89AD9AAD0E945300DC01BB
:101AD000CB018EAB8EA98FA38FA18A95F1F78FA32F
:101AE0008FE00E94B50E80E090E0A4E3B2E48BA307
:101AF0009CA3ADA3BEA36BA17CA18DA19EA12BEA4B
:101B00003AEA4AEA50E40E942902DC01CB018F8FB5
:101B100098A3A9A3BAA36F8D78A189A19AA120E067
:101B200030E040E85FE30E942F0488231CF481E04A
:101B30008E8F91C06F8D78A189A19AA120E030E0AD
:101B40004FE753E40E94CF0318160CF07BC06BA143
:101B50007CA18DA19EA120E030E04AE754E40E94E0
:101B60002303DC01CB018A8F9B8FAC8FBD8F6A8DE5
:101B70007B8D8C8D9D8D20E030E04AE755E40E94FE
:101B80002902DC01CB018E8B9F8BA88FB98F6E89C8
:101B90007F89888D998D20E030E040E85FE30E94E6
:101BA0002F0488232CF481E090E09D8B8C8B3FC028
:101BB0006E897F89888D998D20E03FEF4FE757E44C
:101BC0000E94CF0318164CF56A8D7B8D8C8D9D8DF0
:101BD00020E030E040E251E40E942902DC01CB0128
:101BE000BC01CD010E945300DC01CB019D8B8C8B8D
:101BF0000FC080E991E09B8B8A8B8A899B89019732
:101C0000F1F79B8B8A8B8C899D8901979D8B8C8B9F
:101C10008C899D89009769F724C06E897F89888D9A
:101C2000998D0E945300DC01CB019D8B8C8B8C899C
:101C30009D89998B888B888999890197F1F7998B70
:101C4000888B0FC06F8D78A189A19AA10E94530043
:101C5000DC01CB018E8F8E8D8F878F858A95F1F772
:101C60008F8781E00E94B50E80E090E0A0E0B0E4B4
:101C70008B879C87AD87BE876B857C858D859E8590
:101C800020E030E04AE755E40E942902DC01CB0164
:101C90008F839887A987BA876F81788589859A8588
:101CA00020E030E040E85FE30E942F0488232CF41A
:101CB00081E090E09E838D833FC06F817885898528
:101CC0009A8520E03FEF4FE757E40E94CF031816B4
:101CD0004CF56B857C858D859E8520E030E040E26B
:101CE00051E40E942902DC01CB01BC01CD010E941C
:101CF0005300DC01CB019E838D830FC080E991E00E
:101D00009C838B838B819C810197F1F79C838B83D0
:101D10008D819E8101979E838D838D819E81009709
:101D200069F714C06F81788589859A850E94530070
:101D3000DC01CB019E838D838D819E819A83898373
:101D400089819A810197F1F79A83898386E00E94BD
:101D5000B50EC65ADF4F0FB6F894DEBF0FBECDBF2B
:101D6000CF91DF911F910F910895DF93CF93CDB75E
:101D7000DEB76D970FB6F894DEBF0FBECDBF8D8F67
:101D800082E066E040E00E94C90782E067E040E050
:101D90000E94C9078D8D82958F700E94F11082E09C
:101DA00061E041E00E94C90780E090E0A0E8BFE365
:101DB000898F9A8FAB8FBC8F698D7A8D8B8D9C8D1F
:101DC00020E030E04AE755E40E942902DC01CB0123
:101DD0008D8B9E8BAF8BB88F6D897E898F89988D07
:101DE00020E030E040E85FE30E942F0488232CF4D9
:101DF00081E090E09C8B8B8B3FC06D897E898F89C1
:101E0000988D20E03FEF4FE757E40E94CF0318166C
:101E10004CF5698D7A8D8B8D9C8D20E030E040E211
:101E200051E40E942902DC01CB01BC01CD010E94DA
:101E30005300DC01CB019C8B8B8B0FC080E991E0C0
:101E40009A8B898B89899A890197F1F79A8B898B6B
:101E50008B899C8901979C8B8B8B8B899C890097A4
:101E600069F714C06D897E898F89988D0E9453000F
:101E7000DC01CB019C8B8B8B8B899C89988B8F870A
:101E80008F8598890197F1F7988B8F8782E061E0C1
:101E900040E00E94C9078D8D0E94F11082E061E050
:101EA00041E00E94C90780E090E0A0E8BFE38B8793
:101EB0009C87AD87BE876B857C858D859E8520E060
:101EC00030E04AE755E40E942902DC01CB018F8310
:101ED0009887A987BA876F81788589859A8520E058
:101EE00030E040E85FE30E942F0488232CF481E077
:101EF00090E09E838D833FC06F81788589859A8528
:101F000020E03FEF4FE757E40E94CF0318164CF54F
:101F10006B857C858D859E8520E030E040E251E434
:101F20000E942902DC01CB01BC01CD010E945300BB
:101F3000DC01CB019E838D830FC080E991E09C83FF
:101F40008B838B819C810197F1F79C838B838D819F
:101F50009E8101979E838D838D819E81009769F775
:101F600014C06F81788589859A850E945300DC01B1
:101F7000CB019E838D838D819E819A838983898104
:101F80009A810197F1F79A83898382E061E040E0CA
:101F90000E94C9076D960FB6F894DEBF0FBECDBF85
:101FA000CF91DF910895DF93CF93CDB7DEB76D97D3
:101FB0000FB6F894DEBF0FBECDBF8D8F82E066E016
:101FC00041E00E94C90782E067E040E00E94C90743
:101FD0008D8D82958F700E94F11082E061E041E06A
:101FE0000E94C90780E090E0A0E8BFE3898F9A8F44
:101FF000AB8FBC8F698D7A8D8B8D9C8D20E030E00E
:102000004AE755E40E942902DC01CB018D8B9E8BAF
:10201000AF8BB88F6D897E898F89988D20E030E0F5
:1020200040E85FE30E942F0488232CF481E090E0D5
:102030009C8B8B8B3FC06D897E898F89988D20E02A
:102040003FEF4FE757E40E94CF0318164CF5698D18
:102050007A8D8B8D9C8D20E030E040E251E40E942F
:102060002902DC01CB01BC01CD010E945300DC013F
:10207000CB019C8B8B8B0FC080E991E09A8B898B75
:1020800089899A890197F1F79A8B898B8B899C8929
:1020900001979C8B8B8B8B899C89009769F714C067
:1020A0006D897E898F89988D0E945300DC01CB0158
:1020B0009C8B8B8B8B899C89988B8F878F8598893C
:1020C0000197F1F7988B8F8782E061E040E00E94F2
:1020D000C9078D8D0E94F11082E061E041E00E940D
:1020E000C90780E090E0A0E8BFE38B879C87AD87BD
:1020F000BE876B857C858D859E8520E030E04AE734
:1021000055E40E942902DC01CB018F839887A987BF
:10211000BA876F81788589859A8520E030E040E82C
:102120005FE30E942F0488232CF481E090E09E83DB
:102130008D833FC06F81788589859A8520E03FEF48
:102140004FE757E40E94CF0318164CF56B857C854A
:102150008D859E8520E030E040E251E40E94290216
:10216000DC01CB01BC01CD010E945300DC01CB019D
:102170009E838D830FC080E991E09C838B838B814C
:102180009C810197F1F79C838B838D819E810197C0
:102190009E838D838D819E81009769F714C06F8126
:1021A000788589859A850E945300DC01CB019E8346
:1021B0008D838D819E819A83898389819A810197FC
:1021C000F1F79A83898382E061E040E00E94C907C9
:1021D0006D960FB6F894DEBF0FBECDBFCF91DF91E5
:1021E0000895DF93CF930F92CDB7DEB789838981AE
:1021F000982F917082E062E0492F0E94C90789817F
:102200008695982F917082E060E0492F0E94C9075F
:10221000898186958695982F917082E064E0492F98
:102220000E94C9078981869586958695982F917019
:1022300082E065E0492F0E94C9070F90CF91DF919E
:102240000895DF93CF9300D00F92CDB7DEB79B8375
:102250008A8319820EC08981282F30E08A819B8170
:10226000FC01E20FF31F80810E94D30F89818F5FF1
:1022700089838981282F30E08A819B81FC01E20FCC
:10228000F31F8081882339F70F900F900F90CF9123
:10229000DF910895DF93CF93CDB7DEB72E970FB6BA
:1022A000F894DEBF0FBECDBF81E00E94B50E80E086
:1022B00090E0A0E0B0E48B879C87AD87BE876B85FC
:1022C0007C858D859E8520E030E04AE755E40E94BC
:1022D0002902DC01CB018F839887A987BA876F8198
:1022E000788589859A8520E030E040E85FE30E94A8
:1022F0002F0488232CF481E090E09E838D833FC0DF
:102300006F81788589859A8520E03FEF4FE757E414
:102310000E94CF0318164CF56B857C858D859E85B4
:1023200020E030E040E251E40E942902DC01CB01D0
:10233000BC01CD010E945300DC01CB019E838D8343
:102340000FC080E991E09C838B838B819C810197F6
:10235000F1F79C838B838D819E8101979E838D8372
:102360008D819E81009769F714C06F81788589857A
:102370009A850E945300DC01CB019E838D838D8161
:102380009E819A83898389819A810197F1F79A8343
:1023900089832E960FB6F894DEBF0FBECDBFCF91C6
:1023A000DF9108950F931F93DF93CF93CDB7DEB7DF
:1023B000CD54D0400FB6F894DEBF0FBECDBFFE01A6
:1023C000E45BFF4F8083FE01E35BFF4F6083FE0110
:1023D000E45BFF4F8081813009F0F9C0FE01E55BCD
:1023E000FF4F1082E9C084E10E94B50EFE01EB5B55
:1023F000FF4F80E090E0ACE1B2E480839183A28360
:10240000B3838E010F5B1F4FFE01EB5BFF4F6081BB
:102410007181828193812BEA3AEA4AEA50E40E9470
:102420002902DC01CB01F80180839183A283B3836D
:10243000FE01EF5BFF4F608171818281938120E01B
:1024400030E040E85FE30E942F04882334F481E009
:10245000FE01E05CFF4F80839DC0FE01EF5BFF4FFC
:10246000608171818281938120E030E04FE753E405
:102470000E94CF0318160CF07EC0FE01EB5BFF4FED
:10248000608171818281938120E030E04AE754E4E9
:102490000E942303DC01CB018CAF9DAFAEAFBFAF79
:1024A0006CAD7DAD8EAD9FAD20E030E04AE755E4E8
:1024B0000E942902DC01CB0188AF99AFAAAFBBAF64
:1024C00068AD79AD8AAD9BAD20E030E040E85FE3D8
:1024D0000E942F0488232CF481E090E09FAB8EAB08
:1024E0003FC068AD79AD8AAD9BAD20E03FEF4FE7CF
:1024F00057E40E94CF0318164CF56CAD7DAD8EAD40
:102500009FAD20E030E040E251E40E942902DC016E
:10251000CB01BC01CD010E945300DC01CB019FAB7C
:102520008EAB0FC080E991E09DAB8CAB8CA99DA9CF
:102530000197F1F79DAB8CAB8EA99FA901979FAB3B
:102540008EAB8EA99FA9009769F72DC068AD79ADB4
:102550008AAD9BAD0E945300DC01CB019FAB8EABDB
:102560008EA99FA99BAB8AAB8AA99BA90197F1F77A
:102570009BAB8AAB18C0FE01EF5BFF4F608171819E
:10258000828193810E945300DC01CB01FE01E05C5B
:10259000FF4F8083FE01E05CFF4F808189AB89A9FA
:1025A0008A95F1F789ABDE01A55BBF4FFE01E55BC4
:1025B000FF4F80818F5F8C93FE01E55BFF4FDE0153
:1025C000A35BBF4F90818C91981708F40CCFFE014C
:1025D000E45BFF4F8081823009F0B0C1FE01E65B11
:1025E000FF4F1082CAC084E10E94B50E80E090E0E7
:1025F000ACE1B2E48DA79EA7AFA7B8AB6DA57EA551
:102600008FA598A92BEA3AEA4AEA50E40E942902E7
:10261000DC01CB0189A79AA7ABA7BCA769A57AA5BE
:102620008BA59CA520E030E040E85FE30E942F04EA
:1026300088231CF481E088A791C069A57AA58BA5A1
:102640009CA520E030E04FE753E40E94CF0318162A
:102650000CF07BC06DA57EA58FA598A920E030E089
:102660004AE754E40E942303DC01CB018CA39DA321
:10267000AEA3BFA36CA17DA18EA19FA120E030E0FD
:102680004AE755E40E942902DC01CB0188A399A303
:10269000AAA3BBA368A179A18AA19BA120E030E0F5
:1026A00040E85FE30E942F0488232CF481E090E04F
:1026B0009F8F8E8F3FC068A179A18AA19BA120E046
:1026C0003FEF4FE757E40E94CF0318164CF56CA17B
:1026D0007DA18EA19FA120E030E040E251E40E9464
:1026E0002902DC01CB01BC01CD010E945300DC01B9
:1026F000CB019F8F8E8F0FC080E991E09D8F8C8FD3
:102700008C8D9D8D0197F1F79D8F8C8F8E8D9F8D78
:1027100001979F8F8E8F8E8D9F8D009769F724C0B4
:1027200068A179A18AA19BA10E945300DC01CB0181
:102730009F8F8E8F8E8D9F8D9B8F8A8F8A8D9B8D85
:102740000197F1F79B8F8A8F0FC069A57AA58BA59A
:102750009CA50E945300DC01CB0188A788A5898F26
:10276000898D8A95F1F7898FDE01A65BBF4FFE0147
:10277000E65BFF4F80818F5F8C93FE01E65BFF4F2E
:102780008081883208F42FCFFE01E75BFF4F108273
:10279000CAC084E10E94B50E80E090E0ACE1B2E4F2
:1027A0008D8B9E8BAF8BB88F6D897E898F89988D2D
:1027B0002BEA3AEA4AEA50E40E942902DC01CB0102
:1027C000898B9A8BAB8BBC8B69897A898B899C8925
:1027D00020E030E040E85FE30E942F0488231CF4EF
:1027E00081E0888B91C069897A898B899C8920E0F6
:1027F00030E04FE753E40E94CF0318160CF07BC083
:102800006D897E898F89988D20E030E04AE754E415
:102810000E942303DC01CB018C879D87AE87BF8795
:102820006C857D858E859F8520E030E04AE755E404
:102830000E942902DC01CB0188879987AA87BB8780
:10284000688579858A859B8520E030E040E85FE3F4
:102850000E942F0488232CF481E090E09F838E83D4
:102860003FC0688579858A859B8520E03FEF4FE7EB
:1028700057E40E94CF0318164CF56C857D858E8534
:102880009F8520E030E040E251E40E942902DC0113
:10289000CB01BC01CD010E945300DC01CB019F8321
:1028A0008E830FC080E991E09D838C838C819D8114
:1028B0000197F1F79D838C838E819F8101979F8380
:1028C0008E838E819F81009769F724C06885798502
:1028D0008A859B850E945300DC01CB019F838E83F8
:1028E0008E819F819B838A838A819B810197F1F7E7
:1028F0009B838A830FC069897A898B899C890E940E
:102900005300DC01CB01888B8889898389818A9572
:10291000F1F78983DE01A75BBF4FFE01E75BFF4F45
:1029200080818F5F8C93FE01E75BFF4FDE01A35B2D
:10293000BF4F90818C91981708F42BCFC35BDF4F6A
:102940000FB6F894DEBF0FBECDBFCF91DF911F91C0
:102950000F910895DF93CF93CDB7DEB7E1970FB610
:10296000F894DEBF0FBECDBF89AB89A9813009F0D5
:10297000C1C08CE10E94B50E80E090E0A0E2B2E41C
:102980008DA79EA7AFA7B8AB6DA57EA58FA598A96B
:102990002BEA3AEA4AEA50E40E942902DC01CB0120
:1029A00089A79AA7ABA7BCA769A57AA58BA59CA563
:1029B00020E030E040E85FE30E942F0488231CF40D
:1029C00081E088A791C069A57AA58BA59CA520E088
:1029D00030E04FE753E40E94CF0318160CF07BC0A1
:1029E0006DA57EA58FA598A920E030E04AE754E4C4
:1029F0000E942303DC01CB018CA39DA3AEA3BFA344
:102A00006CA17DA18EA19FA120E030E04AE755E4B2
:102A10000E942902DC01CB0188A399A3AAA3BBA32E
:102A200068A179A18AA19BA120E030E040E85FE3A2
:102A30000E942F0488232CF481E090E09F8F8E8FDA
:102A40003FC068A179A18AA19BA120E03FEF4FE799
:102A500057E40E94CF0318164CF56CA17DA18EA1FE
:102A60009FA120E030E040E251E40E942902DC0115
:102A7000CB01BC01CD010E945300DC01CB019F8F33
:102A80008E8F0FC080E991E09D8F8C8F8C8D9D8DF6
:102A90000197F1F79D8F8C8F8E8D9F8D01979F8F62
:102AA0008E8F8E8D9F8D009769F724C068A179A1C4
:102AB0008AA19BA10E945300DC01CB019F8F8E8FC6
:102AC0008E8D9F8D9B8F8A8F8A8D9B8D0197F1F7BD
:102AD0009B8F8A8F0FC069A57AA58BA59CA50E94A4
:102AE0005300DC01CB0188A788A5898F898D8A9541
:102AF000F1F7898F89A9882309F0C1C088E10E9474
:102B0000B50E80E090E0A0E2B2E48D8B9E8BAF8B9F
:102B1000B88F6D897E898F89988D2BEA3AEA4AEAC7
:102B200050E40E942902DC01CB01898B9A8BAB8B8C
:102B3000BC8B69897A898B899C8920E030E040E8E8
:102B40005FE30E942F0488231CF481E0888B91C0EE
:102B500069897A898B899C8920E030E04FE753E4CA
:102B60000E94CF0318160CF07BC06D897E898F8977
:102B7000988D20E030E04AE754E40E942303DC0112
:102B8000CB018C879D87AE87BF876C857D858E85C1
:102B90009F8520E030E04AE755E40E942902DC01ED
:102BA000CB0188879987AA87BB87688579858A85BD
:102BB0009B8520E030E040E85FE30E942F048823FB
:102BC0002CF481E090E09F838E833FC068857985F7
:102BD0008A859B8520E03FEF4FE757E40E94CF03B3
:102BE00018164CF56C857D858E859F8520E030E03C
:102BF00040E251E40E942902DC01CB01BC01CD017D
:102C00000E945300DC01CB019F838E830FC080E9BB
:102C100091E09D838C838C819D810197F1F79D8349
:102C20008C838E819F8101979F838E838E819F816C
:102C3000009769F724C0688579858A859B850E94FD
:102C40005300DC01CB019F838E838E819F819B8308
:102C50008A838A819B810197F1F79B838A830FC0C6
:102C600069897A898B899C890E945300DC01CB0198
:102C7000888B8889898389818A95F1F78983E19690
:102C80000FB6F894DEBF0FBECDBFCF91DF91089590
:102C90000F931F93DF93CF93CDB7DEB7C25DD040C4
:102CA0000FB6F894DEBF0FBECDBFFE01E153FF4F5C
:102CB00060837183828393831E821D82FE01E153B0
:102CC000FF4F80819181A281B3810097A105B10559
:102CD00009F048C0FE01E153FF4F8081805D0E94F2
:102CE000D30F40C0FE01E153FF4F80819181A2814B
:102CF000B3812AE030E040E050E0BC01CD010E9409
:102D0000111ADC01CB019A8389838D819E819C01FC
:102D1000220F331FCE010196820F931FFC013696BE
:102D200089819A81918380838D819E8101969E8382
:102D30008D838E0101531F4FFE01E153FF4F8081B0
:102D40009181A281B3812AE030E040E050E0BC01F3
:102D5000CD010E94111ADA01C901F8018083918323
:102D6000A283B383FE01E153FF4F80819181A28151
:102D7000B3810097A105B10509F0B4CF8D819E8183
:102D800001979C838B8315C08B819C819C01220FB2
:102D9000331FCE010196820F931FFC01369680816E
:102DA0009181805D0E94D30F8B819C8101979C83D0
:102DB0008B838B819C8199233CF7CE52DF4F0FB6DA
:102DC000F894DEBF0FBECDBFCF91DF911F910F9161
:102DD0000895DF93CF93CDB7DEB728970FB6F89459
:102DE000DEBF0FBECDBF89836A838A81282F30E082
:102DF00038872F838F8198858134910531F02F8119
:102E0000388522343105D9F173C080E060E041E0BB
:102E10000E94E70680E060E041E00E94C90780E090
:102E200061E041E00E94E70680E064E041E00E944A
:102E3000E7068981282F30E03E832D838D819E8196
:102E40008130910531F02D813E812230310561F0D4
:102E50004FC080E061E041E00E94C90780E064E08B
:102E600040E00E94C90744C080E061E040E00E9469
:102E7000C90780E064E041E00E94C90739C082E0F0
:102E800067E041E00E94E70682E067E041E00E94DF
:102E9000C90781E065E041E00E94E70681E066E065
:102EA00041E00E94E7068981282F30E03C832B8394
:102EB0008B819C818130910531F02B813C812230C6
:102EC000310561F015C081E065E041E00E94C9076D
:102ED00081E066E040E00E94C9070AC081E065E049
:102EE00040E00E94C90781E066E041E00E94C90716
:102EF00028960FB6F894DEBF0FBECDBFCF91DF91FD
:102F00000895DF93CF9300D00F92CDB7DEB78983BA
:102F10008981282F30E03B832A838A819B818134F9
:102F2000910541F02A813B812234310591F40E94C0
:102F3000A6060FC080E061E040E00E94C90780E083
:102F400064E040E00E94C90780E060E040E00E9449
:102F5000C9070F900F900F90CF91DF910895DF93E5
:102F6000CF93CDB7DEB729970FB6F894DEBF0FBE6B
:102F7000CDBF89836A834B830E9459060E948A06CB
:102F800080E061E041E00E94E7068981282F30E07F
:102F900039872887888599858134910531F028857E
:102FA00039852234310569F157C08B81282F30E0F3
:102FB0003F832E838E819F818130910531F02E8158
:102FC0003F812230310579F047C080E064E041E084
:102FD0000E94E70680E064E040E00E94C9078A8121
:102FE0000E94C20639C080E061E041E00E94E7062D
:102FF00080E061E040E00E94C9078A810E94C20629
:103000002BC08B81282F30E03D832C838C819D81C8
:103010008130910531F02C813D812230310579F0EC
:103020001BC081E066E041E00E94E70681E066E0C7
:1030300040E00E94C9078A810E94C2060DC081E05B
:1030400065E041E00E94E70681E065E040E00E9423
:10305000C9078A810E94C20629960FB6F894DEBF7E
:103060000FBECDBFCF91DF910895DF93CF93CDB742
:10307000DEB7AB970FB6F894DEBF0FBECDBF1BA671
:103080000E94A90A0E94050BCE018B960E94B80AE5
:103090008BA58E3148F08BA5833230F481E464E156
:1030A00041E00E94AF171BC08BA5833248F08BA56F
:1030B000883230F481E462E341E00E94AF170FC030
:1030C0008BA5883230F081E46AE541E00E94AF17B9
:1030D00006C08BA58E3118F481E40E9481178BA560
:1030E000882F90E0A0E0B0E0BC01CD010E9448161E
:1030F00083E60E94D30F80E090E0A6E9B3E48FA3BB
:1031000098A7A9A7BAA76FA178A589A59AA520E035
:1031100030E04AE755E40E942902DC01CB018BA391
:103120009CA3ADA3BEA36BA17CA18DA19EA120E019
:1031300030E040E85FE30E942F0488232CF481E014
:1031400090E09AA389A33FC06BA17CA18DA19EA111
:1031500020E03FEF4FE757E40E94CF0318164CF5ED
:103160006FA178A589A59AA520E030E040E251E45E
:103170000E942902DC01CB01BC01CD010E94530059
:10318000DC01CB019AA389A30FC080E991E098A349
:103190008F8F8F8D98A10197F1F798A38F8F89A1B9
:1031A0009AA101979AA389A389A19AA1009769F787
:1031B00014C06BA17CA18DA19EA10E945300DC01D3
:1031C000CB019AA389A389A19AA19E8F8D8F8D8D02
:1031D0009E8D0197F1F79E8F8D8F0E944A118BA5CE
:1031E0008E3108F4E9C080E090E0A6E9B3E4898F6D
:1031F0009A8FAB8FBC8F698D7A8D8B8D9C8D20E0E3
:1032000030E04AE755E40E942902DC01CB018D8BB6
:103210009E8BAF8BB88F6D897E898F89988D20E0CA
:1032200030E040E85FE30E942F0488232CF481E023
:1032300090E09C8B8B8B3FC06D897E898F89988DA8
:1032400020E03FEF4FE757E40E94CF0318164CF5FC
:10325000698D7A8D8B8D9C8D20E030E040E251E4C9
:103260000E942902DC01CB01BC01CD010E94530068
:10327000DC01CB019C8B8B8B0FC080E991E09A8B9A
:10328000898B89899A890197F1F79A8B898B8B8928
:103290009C8901979C8B8B8B8B899C89009769F704
:1032A00014C06D897E898F89988D0E945300DC013E
:1032B000CB019C8B8B8B8B899C89988B8F878F857F
:1032C00098890197F1F7988B8F8781E461E041E05D
:1032D0000E94AF1780E090E0A6E9B3E48B879C875B
:1032E000AD87BE876B857C858D859E8520E030E02F
:1032F0004AE755E40E942902DC01CB018F839887BD
:10330000A987BA876F81788589859A8520E030E022
:1033100040E85FE30E942F0488232CF481E090E0D2
:103320009E838D833FC06F81788589859A8520E053
:103330003FEF4FE757E40E94CF0318164CF56B851B
:103340007C858D859E8520E030E040E251E40E943E
:103350002902DC01CB01BC01CD010E945300DC013C
:10336000CB019E838D830FC080E991E09C838B838A
:103370008B819C810197F1F79C838B838D819E814A
:1033800001979E838D838D819E81009769F714C07C
:103390006F81788589859A850E945300DC01CB0175
:1033A0009E838D838D819E819A83898389819A8171
:1033B0000197F1F79A8389831BA666CE629FD0019D
:1033C000739FF001829FE00DF11D649FE00DF11DE0
:1033D000929FF00D839FF00D749FF00D659FF00D8F
:1033E0009927729FB00DE11DF91F639FB00DE11D7C
:1033F000F91FBD01CF0111240895AA1BBB1B51E188
:1034000007C0AA1FBB1FA617B70710F0A61BB70B54
:10341000881F991F5A95A9F780959095BC01CD01F9
:103420000895A1E21A2EAA1BBB1BFD010DC0AA1F05
:10343000BB1FEE1FFF1FA217B307E407F50720F01D
:10344000A21BB30BE40BF50B661F771F881F991F98
:103450001A9469F760957095809590959B01AC01E1
:10346000BD01CF0108952F923F924F925F926F92CC
:103470007F928F929F92AF92BF92CF92DF92EF9204
:10348000FF920F931F93CF93DF93CDB7DEB7CA1B85
:10349000DB0B0FB6F894DEBF0FBECDBF09942A88B0
:1034A000398848885F846E847D848C849B84AA8458
:1034B000B984C884DF80EE80FD800C811B81AA81E5
:1034C000B981CE0FD11D0FB6F894DEBF0FBECDBFB0
:0834D000ED010895F894FFCF0F
:0834D8000000000000000000EC
:00000001FF
